ABC1200000001JUAN ALBERTO RODRIGUEZ   Chile 172           4444
BBB0200000002ROBERTO GONZALEZ         San Jorge 728       6666
DDD1100000003JAVIER ALVAREZ           Aguirre 1069        9593
FFF1100000004MATIAS PANCLASIO         Loyuela 1169        9593
HHH1100000005CARLOS DE CRISTOFARO     Belgrano 2323       2233
JJJ3300000006SANTIAGO LOPEZ           Independencia 2233  5663
