ABC1200000001JUAN ALBERTO RODRIGUEZ   Chile 172           44444444
BBB0200000002ROBERTO GONZALEZ         San Jorge 728       66665555
DDD1100000003JAVIER ALVAREZ           Aguirre 1069        95935555
FFF1100000004MATIAS PANCLASIO         Loyuela 1169        95935555
HHH1100000005CARLOS DE CRISTOFARO     Belgrano 2323       22336666
JJJ3300000006SANTIAGO LOPEZ           Independencia 2233  56637777
